{
  "_format": "hh-sol-artifact-1",
  "contractName": "EventWinner",
  "sourceName": "contracts/EventWinner.sol",
  "abi": [
    {
      "inputs": [
        {
          "internalType": "address",
          "name": "winnerAddr",
          "type": "address"
        }
      ],
      "name": "callWinner",
      "outputs": [],
      "stateMutability": "nonpayable",
      "type": "function"
    }
  ],
  "bytecode": "0x608060405234801561001057600080fd5b50610175806100206000396000f3fe608060405234801561001057600080fd5b506004361061002b5760003560e01c8063bef097e214610030575b600080fd5b61004a60048036038101906100459190610112565b61004c565b005b8073ffffffffffffffffffffffffffffffffffffffff1663732b7a8d6040518163ffffffff1660e01b8152600401600060405180830381600087803b15801561009457600080fd5b505af11580156100a8573d6000803e3d6000fd5b5050505050565b600080fd5b600073ffffffffffffffffffffffffffffffffffffffff82169050919050565b60006100df826100b4565b9050919050565b6100ef816100d4565b81146100fa57600080fd5b50565b60008135905061010c816100e6565b92915050565b600060208284031215610128576101276100af565b5b6000610136848285016100fd565b9150509291505056fea26469706673582212208a5205269d2b46b5d1f16a3e85c456e1eb1e528d2e1e56b686aae3d3d46e513264736f6c63430008120033",
  "linkReferences": {},
  "deployedLinkReferences": {}
}